:0300000002002ECD
:0C002E00787FE4F6D8FD758109020075AA
:0A00D6003F065B4F666D7D077F6FEC
:0400E0000208000012
:0D00C90075CB3C75CAB0D2ADD2AFD2CA2201
:03002B000200BA16
:0F00BA00C0E0C2CF0509E50970020508D0E032A9
:10000300E4FF1200C975A007EF75F00A84E5F090CC
:1000130000D693F580E5096414450870F8F508F5F2
:04002300090F80E45D
:10003A00020003E493A3F8E493A34003F68001F2D9
:10004A0008DFF48029E493A3F85407240CC8C333C7
:10005A00C4540F4420C8834004F456800146F6DF96
:10006A00E4800B01020408102040809000E0E47E46
:10007A00019360BCA3FF543F30E509541FFEE4938B
:10008A00A360010ECF54C025E060A840B8E493A352
:10009A00FAE493A3F8E493A3C8C582C8CAC583CA7D
:1000AA00F0A3C8C582C8CAC583CADFE9DEE780BE35
:0100E400001B
:00000001FF
