:0300000002000EED
:0C000E00787FE4F6D8FD75810A020055E9
:0A0116003F065B4F666D7D077F6FAB
:0700030002080000010A00E1
:1000D100E4FDFCC3ED9FEC9E5015E4FBFA0BBB0065
:0F00E100010AEB64954A70F50DBD00010C80E437
:0100F00022ED
:0F010700758906758CFF758AFF75A882D28C22C8
:03000B0002009A56
:10009A00C0E0C0D075D000C002C003C004C005C013
:1000AA0006C007C28C050A758CFF758AFF7FC87E59
:1000BA00001200D1D28CD007D006D005D004D003CC
:0700CA00D002D0D0D0E032DB
:1000F10012010775A007E50A75F00A84E5F0900181
:060101001693F58080F06A
:10001A000200F1E493A3F8E493A34003F68001F20B
:10002A0008DFF48029E493A3F85407240CC8C333E7
:10003A00C4540F4420C8834004F456800146F6DFB6
:10004A00E4800B0102040810204080900003E47E43
:10005A00019360BCA3FF543F30E509541FFEE493AB
:10006A00A360010ECF54C025E060A840B8E493A372
:10007A00FAE493A3F8E493A3C8C582C8CAC583CA9D
:10008A00F0A3C8C582C8CAC583CADFE9DEE780BE55
:01000A0000F5
:00000001FF
