:03000000020003F8
:0C000300787FE4F6D8FD75812802004AE1
:10008F0010083F065B4F666D7D077F6F777C395E8B
:10009F0079711018BF86DBCFE6EDFD87FFEFF7FC18
:0400AF00B9DEF9F1CC
:0B00B400E4F52875A007851D8080FE84
:10000F000200B4E493A3F8E493A34003F68001F253
:10001F0008DFF48029E493A3F85407240CC8C333F2
:10002F00C4540F4420C8834004F456800146F6DFC1
:10003F00E4800B010204081020408090008FE47EC2
:10004F00019360BCA3FF543F30E509541FFEE493B6
:10005F00A360010ECF54C025E060A840B8E493A37D
:10006F00FAE493A3F8E493A3C8C582C8CAC583CAA8
:10007F00F0A3C8C582C8CAC583CADFE9DEE780BE60
:0100B300004C
:00000001FF
