BL51 BANKED LINKER/LOCATER V5.12                                                        03/08/2012  14:44:11  PAGE 1


BL51 BANKED LINKER/LOCATER V5.12, INVOKED BY:
D:\PROGRAM FILES\KEIL\C51\BIN\BL51.EXE 步进电机.obj TO 步进电机 RAMSIZE (256)


MEMORY MODEL: SMALL


INPUT MODULES INCLUDED:
  步进电机.obj (步絖电籣)
  D:\PROGRAM FILES\KEIL\C51\LIB\C51S.LIB (?C_STARTUP)
  D:\PROGRAM FILES\KEIL\C51\LIB\C51S.LIB (?C_INIT)


LINK MAP OF MODULE:  步进电机 (步絖电籣)


            TYPE    BASE      LENGTH    RELOCATION   SEGMENT NAME
            -----------------------------------------------------

            * * * * * * *   D A T A   M E M O R Y   * * * * * * *
            REG     0000H     0008H     ABSOLUTE     "REG BANK 0"
            DATA    0008H     0002H     UNIT         _DATA_GROUP_
            DATA    000AH     0001H     UNIT         ?DT?步絖电籣
                    000BH     0015H                  *** GAP ***
            BIT     0020H.0   0000H.1   UNIT         ?BI?步絖电籣
                    0020H.1   0000H.7                *** GAP ***
            IDATA   0021H     0001H     UNIT         ?STACK

            * * * * * * *   C O D E   M E M O R Y   * * * * * * *
            CODE    0000H     0003H     ABSOLUTE     
            CODE    0003H     008CH     UNIT         ?C_C51STARTUP
            CODE    008FH     0046H     UNIT         ?PR?MAIN?步絖电籣
            CODE    00D5H     001EH     UNIT         ?PR?_DELAY?步絖电籣
            CODE    00F3H     0010H     UNIT         ?CO?步絖电籣
            CODE    0103H     0006H     UNIT         ?C_INITSEG



OVERLAY MAP OF MODULE:   步进电机 (步絖电籣)


SEGMENT                          DATA_GROUP 
  +--> CALLED SEGMENT          START    LENGTH
----------------------------------------------
?C_C51STARTUP                  -----    -----
  +--> ?PR?MAIN?步絖电籣
  +--> ?C_INITSEG

?PR?MAIN?步絖电籣              0008H    0002H
  +--> ?CO?步絖电籣
  +--> ?PR?_DELAY?步絖电籣



SYMBOL TABLE OF MODULE:  步进电机 (步絖电籣)

  VALUE           TYPE          NAME
  ----------------------------------
BL51 BANKED LINKER/LOCATER V5.12                                                      03/08/2012  14:44:11  PAGE 2



  -------         MODULE        步絖电籣
  C:0000H         SYMBOL        _ICE_DUMMY_
  D:0090H         PUBLIC        P1
  D:00B0H         PUBLIC        P3
  B:0020H.0       PUBLIC        FB_flag
  D:00A8H         PUBLIC        IE
  D:00B8H         PUBLIC        IP
  D:000AH         PUBLIC        Step
  C:008FH         PUBLIC        main
  D:0098H         PUBLIC        SCON
  D:0088H         PUBLIC        TCON
  C:00DDH         PUBLIC        _Delay
  D:00C8H         PUBLIC        T2CON
  C:00FBH         PUBLIC        B_Rotation
  D:00D0H         PUBLIC        PSW
  C:00F3H         PUBLIC        F_Rotation
  -------         PROC          L?0025
  -------         ENDPROC       L?0025
  -------         PROC          _DELAY
  D:0006H         SYMBOL        i
  -------         DO            
  D:0004H         SYMBOL        x
  D:0005H         SYMBOL        j
  -------         ENDDO         
  C:00DDH         LINE#         29
  C:00DDH         LINE#         30
  C:00DDH         LINE#         32
  C:00E6H         LINE#         33
  C:00F2H         LINE#         34
  -------         ENDPROC       _DELAY
  -------         PROC          MAIN
  -------         DO            
  D:0003H         SYMBOL        i
  D:0008H         SYMBOL        k
  -------         ENDDO         
  C:008FH         LINE#         36
  C:008FH         LINE#         37
  C:008FH         LINE#         39
  C:0094H         LINE#         40
  C:0098H         LINE#         41
  C:0098H         LINE#         42
  C:009AH         LINE#         43
  C:009AH         LINE#         44
  C:009DH         LINE#         45
  C:00A0H         LINE#         46
  C:00A4H         LINE#         47
  C:00B3H         LINE#         48
  C:00B8H         LINE#         49
  C:00B8H         LINE#         50
  C:00BAH         LINE#         51
  C:00BAH         LINE#         52
  C:00BDH         LINE#         53
  C:00C0H         LINE#         54
  C:00C4H         LINE#         55
  C:00D3H         LINE#         56
  -------         ENDPROC       MAIN
BL51 BANKED LINKER/LOCATER V5.12                                                      03/08/2012  14:44:11  PAGE 3


  -------         ENDMOD        步絖电籣

Program Size: data=12.1 xdata=0 code=265
LINK/LOCATE RUN COMPLETE.  0 WARNING(S),  0 ERROR(S)
