:0300000002000EED
:0C000E00787FE4F6D8FD758109020055EA
:0A00DD003F065B4F666D7D077F6FE5
:0400030002080000EF
:0F00C100758902758CA3758AA375A882D28C22CB
:03000B000200D020
:0D00D000C0E00509E50970020508D0E03226
:10009A00E4FF1200C175A007EF75F00A84E5F0903D
:1000AA0000DD93F580E509B410FBE508B427F6E412
:0700BA00F508F5090F80E1D4
:10001A0002009AE493A3F8E493A34003F68001F262
:10002A0008DFF48029E493A3F85407240CC8C333E7
:10003A00C4540F4420C8834004F456800146F6DFB6
:10004A00E4800B0102040810204080900003E47E43
:10005A00019360BCA3FF543F30E509541FFEE493AB
:10006A00A360010ECF54C025E060A840B8E493A372
:10007A00FAE493A3F8E493A3C8C582C8CAC583CA9D
:10008A00F0A3C8C582C8CAC583CADFE9DEE780BE55
:0100070000F8
:00000001FF
