BL51 BANKED LINKER/LOCATER V5.12                                                        03/11/2012  13:10:31  PAGE 1


BL51 BANKED LINKER/LOCATER V5.12, INVOKED BY:
D:\PROGRAM FILES\KEIL\C51\BIN\BL51.EXE STARTUP.obj, 时钟DS1302LCD.obj TO 时钟DS1302LCD RAMSIZE (256)


MEMORY MODEL: SMALL


INPUT MODULES INCLUDED:
  STARTUP.obj (?C_STARTUP)
  时钟DS1302LCD.obj (时钟DS1302LCD)
  D:\PROGRAM FILES\KEIL\C51\LIB\C51S.LIB (?C?CLDPTR)
  D:\PROGRAM FILES\KEIL\C51\LIB\C51S.LIB (?C?CSTPTR)
  D:\PROGRAM FILES\KEIL\C51\LIB\C51S.LIB (?C?CSTOPTR)


LINK MAP OF MODULE:  时钟DS1302LCD (?C_STARTUP)


            TYPE    BASE      LENGTH    RELOCATION   SEGMENT NAME
            -----------------------------------------------------

            * * * * * * *   D A T A   M E M O R Y   * * * * * * *
            REG     0000H     0008H     ABSOLUTE     "REG BANK 0"
            DATA    0008H     0004H     UNIT         _DATA_GROUP_
            DATA    000CH     0003H     UNIT         ?DT?_V_GET1302?时钟DS1302LCD
            DATA    000FH     0001H     UNIT         ?DT?_V_SET1302?时钟DS1302LCD
            IDATA   0010H     0001H     UNIT         ?STACK

            * * * * * * *   C O D E   M E M O R Y   * * * * * * *
            CODE    0000H     0003H     ABSOLUTE     
            CODE    0003H     016BH     UNIT         ?PR?RUN_DS1302?时钟DS1302LCD
            CODE    016EH     004DH     UNIT         ?C?LIB_CODE
            CODE    01BBH     0030H     UNIT         ?PR?WRITE_DS1302INIT?时钟DS1302LCD
            CODE    01EBH     002DH     UNIT         ?PR?_DELAY_1MS?时钟DS1302LCD
            CODE    0218H     0025H     UNIT         ?PR?_V_BURSTW1302T?时钟DS1302LCD
            CODE    023DH     0025H     UNIT         ?PR?_V_BURSTW1302R?时钟DS1302LCD
            CODE    0262H     0025H     UNIT         ?PR?_V_SET1302?时钟DS1302LCD
            CODE    0287H     0025H     UNIT         ?PR?_V_GET1302?时钟DS1302LCD
            CODE    02ACH     0022H     UNIT         ?PR?_V_BURSTR1302T?时钟DS1302LCD
            CODE    02CEH     0022H     UNIT         ?PR?_V_BURSTR1302R?时钟DS1302LCD
            CODE    02F0H     001DH     UNIT         ?PR?DELAY?时钟DS1302LCD
            CODE    030DH     001AH     UNIT         ?PR?_V_W1302?时钟DS1302LCD
            CODE    0327H     001AH     UNIT         ?PR?_DECTOBCD?时钟DS1302LCD
            CODE    0341H     0018H     UNIT         ?PR?_V_RTINPUTBYTE?时钟DS1302LCD
            CODE    0359H     0018H     UNIT         ?PR?_BCDTODEC?时钟DS1302LCD
            CODE    0371H     0014H     UNIT         ?PR?UC_RTOUTPUTBYTE?时钟DS1302LCD
            CODE    0385H     000DH     UNIT         ?PR?_UC_R1302?时钟DS1302LCD
            CODE    0392H     000CH     UNIT         ?C_C51STARTUP
            CODE    039EH     000AH     UNIT         ?CO?时钟DS1302LCD
            CODE    03A8H     0006H     UNIT         ?PR?MAIN?时钟DS1302LCD



OVERLAY MAP OF MODULE:   时钟DS1302LCD (?C_STARTUP)


SEGMENT                                      DATA_GROUP 
  +--> CALLED SEGMENT                      START    LENGTH
BL51 BANKED LINKER/LOCATER V5.12                                                      03/11/2012  13:10:31  PAGE 2


----------------------------------------------------------
?C_C51STARTUP                              -----    -----
  +--> ?PR?MAIN?时钟DS1302LCD

?PR?MAIN?时钟DS1302LCD                     -----    -----
  +--> ?PR?WRITE_DS1302INIT?时钟DS1302LCD
  +--> ?PR?RUN_DS1302?时钟DS1302LCD

?PR?WRITE_DS1302INIT?时钟DS1302LCD         -----    -----
  +--> ?PR?_V_W1302?时钟DS1302LCD

?PR?_V_W1302?时钟DS1302LCD                 -----    -----
  +--> ?PR?_V_RTINPUTBYTE?时钟DS1302LCD

?PR?RUN_DS1302?时钟DS1302LCD               0008H    0004H
  +--> ?PR?_V_W1302?时钟DS1302LCD
  +--> ?PR?_BCDTODEC?时钟DS1302LCD
  +--> ?PR?_UC_R1302?时钟DS1302LCD
  +--> ?CO?时钟DS1302LCD
  +--> ?PR?_DELAY_1MS?时钟DS1302LCD

?PR?_BCDTODEC?时钟DS1302LCD                -----    -----
  +--> ?PR?_UC_R1302?时钟DS1302LCD

?PR?_UC_R1302?时钟DS1302LCD                -----    -----
  +--> ?PR?_V_RTINPUTBYTE?时钟DS1302LCD
  +--> ?PR?UC_RTOUTPUTBYTE?时钟DS1302LCD



SYMBOL TABLE OF MODULE:  时钟DS1302LCD (?C_STARTUP)

  VALUE           TYPE          NAME
  ----------------------------------

  -------         MODULE        ?C_STARTUP
  C:0392H         SEGMENT       ?C_C51STARTUP
  I:0010H         SEGMENT       ?STACK
  C:0000H         PUBLIC        ?C_STARTUP
  D:00E0H         SYMBOL        ACC
  D:00F0H         SYMBOL        B
  D:0083H         SYMBOL        DPH
  D:0082H         SYMBOL        DPL
  N:0000H         SYMBOL        IBPSTACK
  N:0100H         SYMBOL        IBPSTACKTOP
  N:0080H         SYMBOL        IDATALEN
  C:0395H         SYMBOL        IDATALOOP
  N:0000H         SYMBOL        PBPSTACK
  N:0000H         SYMBOL        PBPSTACKTOP
  N:0000H         SYMBOL        PDATALEN
  N:0000H         SYMBOL        PDATASTART
  N:0000H         SYMBOL        PPAGE
  N:0000H         SYMBOL        PPAGEENABLE
  D:00A0H         SYMBOL        PPAGE_SFR
  D:0081H         SYMBOL        SP
  C:0392H         SYMBOL        STARTUP1
  N:0000H         SYMBOL        XBPSTACK
BL51 BANKED LINKER/LOCATER V5.12                                                      03/11/2012  13:10:31  PAGE 3


  N:0000H         SYMBOL        XBPSTACKTOP
  N:0000H         SYMBOL        XDATALEN
  N:0000H         SYMBOL        XDATASTART
  C:0000H         LINE#         92
  C:0392H         LINE#         99
  C:0394H         LINE#         100
  C:0395H         LINE#         101
  C:0396H         LINE#         102
  C:0398H         LINE#         151
  C:039BH         LINE#         155
  -------         ENDMOD        ?C_STARTUP

  -------         MODULE        时钟DS1302LCD
  C:0000H         SYMBOL        _ICE_DUMMY_
  B:00E0H.7       PUBLIC        ACC7
  D:0080H         PUBLIC        P0
  D:0090H         PUBLIC        P1
  D:00A0H         PUBLIC        P2
  D:00B0H         PUBLIC        P3
  C:03A8H         PUBLIC        Main
  C:0347H         PUBLIC        _v_RTInputByte
  C:039EH         PUBLIC        table
  C:0371H         PUBLIC        uc_RTOutputByte
  D:00A8H         PUBLIC        IE
  B:0090H.6       PUBLIC        T_CLK
  C:02F0H         PUBLIC        delay
  D:00B8H         PUBLIC        IP
  B:00B0H.2       PUBLIC        KEY1
  B:00B0H.4       PUBLIC        KEY2
  C:035CH         PUBLIC        _bcdtodec
  C:0327H         PUBLIC        _dectobcd
  C:0287H         PUBLIC        _v_Get1302
  C:0262H         PUBLIC        _v_Set1302
  B:0090H.7       PUBLIC        T_RST
  C:0385H         PUBLIC        _uc_R1302
  D:0098H         PUBLIC        SCON
  D:0088H         PUBLIC        TCON
  C:02CEH         PUBLIC        _v_BurstR1302R
  C:02ACH         PUBLIC        _v_BurstR1302T
  C:023DH         PUBLIC        _v_BurstW1302R
  C:0218H         PUBLIC        _v_BurstW1302T
  C:0202H         PUBLIC        _Delay_1ms
  D:00E0H         PUBLIC        ACC
  B:00B0H.5       PUBLIC        T_IO
  C:0316H         PUBLIC        _v_W1302
  C:01BBH         PUBLIC        Write_DS1302Init
  D:00C8H         PUBLIC        T2CON
  C:0003H         PUBLIC        Run_DS1302
  B:00E0H.0       PUBLIC        ACC0
  D:00D0H         PUBLIC        PSW
  -------         PROC          DELAY
  -------         DO            
  D:0006H         SYMBOL        i
  D:0004H         SYMBOL        j
  -------         ENDDO         
  C:02F0H         LINE#         30
  C:02F0H         LINE#         31
BL51 BANKED LINKER/LOCATER V5.12                                                      03/11/2012  13:10:31  PAGE 4


  C:02F0H         LINE#         33
  C:02F3H         LINE#         34
  C:030CH         LINE#         36
  -------         ENDPROC       DELAY
  -------         PROC          L?0067
  -------         ENDPROC       L?0067
  -------         PROC          _DELAY_1MS
  D:0006H         SYMBOL        i
  -------         DO            
  D:0004H         SYMBOL        x
  D:0005H         SYMBOL        j
  -------         ENDDO         
  C:0202H         LINE#         44
  C:0202H         LINE#         45
  C:0202H         LINE#         47
  C:020BH         LINE#         48
  C:0217H         LINE#         49
  -------         ENDPROC       _DELAY_1MS
  -------         PROC          L?0069
  -------         ENDPROC       L?0069
  -------         PROC          _V_RTINPUTBYTE
  D:0007H         SYMBOL        ucDa
  -------         DO            
  D:0007H         SYMBOL        i
  -------         ENDDO         
  C:0347H         LINE#         57
  C:0347H         LINE#         58
  C:0347H         LINE#         60
  C:0348H         LINE#         61
  C:034AH         LINE#         62
  C:034CH         LINE#         63
  C:034CH         LINE#         64
  C:0350H         LINE#         65
  C:0352H         LINE#         66
  C:0354H         LINE#         67
  C:0356H         LINE#         68
  C:0358H         LINE#         69
  -------         ENDPROC       _V_RTINPUTBYTE
  -------         PROC          UC_RTOUTPUTBYTE
  -------         DO            
  D:0007H         SYMBOL        i
  -------         ENDDO         
  C:0371H         LINE#         77
  C:0371H         LINE#         78
  C:0371H         LINE#         80
  C:0373H         LINE#         81
  C:0375H         LINE#         82
  C:0375H         LINE#         83
  C:0377H         LINE#         84
  C:0379H         LINE#         85
  C:037DH         LINE#         86
  C:037FH         LINE#         87
  C:0381H         LINE#         88
  C:0383H         LINE#         89
  C:0384H         LINE#         90
  -------         ENDPROC       UC_RTOUTPUTBYTE
  C:030FH         SYMBOL        L?0065
BL51 BANKED LINKER/LOCATER V5.12                                                      03/11/2012  13:10:31  PAGE 5


  C:0312H         SYMBOL        L?0066
  -------         PROC          L?0064
  -------         ENDPROC       L?0064
  C:030FH         SYMBOL        L?0065
  C:0312H         SYMBOL        L?0066
  -------         PROC          _V_W1302
  D:0007H         SYMBOL        ucAddr
  D:0006H         SYMBOL        ucDa
  C:0316H         LINE#         98
  C:0318H         LINE#         99
  C:0318H         LINE#         100
  C:0318H         LINE#         101
  C:0318H         LINE#         102
  C:0318H         LINE#         103
  C:031BH         LINE#         104
  C:031CH         LINE#         105
  C:031DH         LINE#         106
  C:0322H         LINE#         107
  C:0324H         LINE#         108
  C:0326H         LINE#         109
  -------         ENDPROC       _V_W1302
  -------         PROC          _UC_R1302
  D:0007H         SYMBOL        ucAddr
  -------         DO            
  D:0007H         SYMBOL        ucDa
  -------         ENDDO         
  C:0385H         LINE#         117
  C:0385H         LINE#         118
  C:0385H         LINE#         120
  C:0385H         LINE#         121
  C:0385H         LINE#         122
  C:0385H         LINE#         123
  C:0388H         LINE#         124
  C:0389H         LINE#         125
  C:038AH         LINE#         126
  C:038DH         LINE#         127
  C:038FH         LINE#         128
  C:0391H         LINE#         129
  C:0391H         LINE#         130
  -------         ENDPROC       _UC_R1302
  -------         PROC          _V_BURSTW1302T
  D:0001H         SYMBOL        pSecDa
  -------         DO            
  D:0006H         SYMBOL        i
  -------         ENDDO         
  C:0218H         LINE#         139
  C:0218H         LINE#         140
  C:0218H         LINE#         142
  C:021BH         LINE#         143
  C:021DH         LINE#         144
  C:021FH         LINE#         145
  C:0221H         LINE#         146
  C:0226H         LINE#         147
  C:0228H         LINE#         148
  C:0228H         LINE#         149
  C:022FH         LINE#         150
  C:0236H         LINE#         151
BL51 BANKED LINKER/LOCATER V5.12                                                      03/11/2012  13:10:31  PAGE 6


  C:0238H         LINE#         152
  C:023AH         LINE#         153
  C:023CH         LINE#         154
  -------         ENDPROC       _V_BURSTW1302T
  -------         PROC          _V_BURSTR1302T
  D:0001H         SYMBOL        pSecDa
  -------         DO            
  D:0006H         SYMBOL        i
  -------         ENDDO         
  C:02ACH         LINE#         163
  C:02ACH         LINE#         164
  C:02ACH         LINE#         166
  C:02AEH         LINE#         167
  C:02B0H         LINE#         168
  C:02B2H         LINE#         169
  C:02B7H         LINE#         170
  C:02B9H         LINE#         171
  C:02B9H         LINE#         172
  C:02C0H         LINE#         173
  C:02C7H         LINE#         174
  C:02C9H         LINE#         175
  C:02CBH         LINE#         176
  C:02CDH         LINE#         177
  -------         ENDPROC       _V_BURSTR1302T
  -------         PROC          _V_BURSTW1302R
  D:0001H         SYMBOL        pReDa
  -------         DO            
  D:0006H         SYMBOL        i
  -------         ENDDO         
  C:023DH         LINE#         185
  C:023DH         LINE#         186
  C:023DH         LINE#         188
  C:0240H         LINE#         189
  C:0242H         LINE#         190
  C:0244H         LINE#         191
  C:0246H         LINE#         192
  C:024BH         LINE#         193
  C:024DH         LINE#         194
  C:024DH         LINE#         195
  C:0254H         LINE#         196
  C:025BH         LINE#         197
  C:025DH         LINE#         198
  C:025FH         LINE#         199
  C:0261H         LINE#         200
  -------         ENDPROC       _V_BURSTW1302R
  -------         PROC          _V_BURSTR1302R
  D:0001H         SYMBOL        pReDa
  -------         DO            
  D:0006H         SYMBOL        i
  -------         ENDDO         
  C:02CEH         LINE#         208
  C:02CEH         LINE#         209
  C:02CEH         LINE#         211
  C:02D0H         LINE#         212
  C:02D2H         LINE#         213
  C:02D4H         LINE#         214
  C:02D9H         LINE#         215
BL51 BANKED LINKER/LOCATER V5.12                                                      03/11/2012  13:10:31  PAGE 7


  C:02DBH         LINE#         216
  C:02DBH         LINE#         217
  C:02E2H         LINE#         218
  C:02E9H         LINE#         219
  C:02EBH         LINE#         220
  C:02EDH         LINE#         221
  C:02EFH         LINE#         222
  -------         ENDPROC       _V_BURSTR1302R
  -------         PROC          _V_SET1302
  D:0001H         SYMBOL        pSecDa
  -------         DO            
  D:0004H         SYMBOL        i
  D:000FH         SYMBOL        ucAddr
  -------         ENDDO         
  C:0262H         LINE#         231
  C:0262H         LINE#         232
  C:0262H         LINE#         234
  C:0265H         LINE#         235
  C:0268H         LINE#         236
  C:026AH         LINE#         237
  C:026AH         LINE#         238
  C:0273H         LINE#         239
  C:027AH         LINE#         240
  C:027EH         LINE#         241
  C:0280H         LINE#         242
  -------         ENDPROC       _V_SET1302
  -------         PROC          _V_GET1302
  D:000CH         SYMBOL        ucCurtime
  -------         DO            
  D:0005H         SYMBOL        i
  D:0006H         SYMBOL        ucAddr
  -------         ENDDO         
  C:0287H         LINE#         252
  C:028DH         LINE#         253
  C:028DH         LINE#         255
  C:028FH         LINE#         256
  C:0291H         LINE#         257
  C:0291H         LINE#         258
  C:02A5H         LINE#         259
  C:02A7H         LINE#         260
  C:02ABH         LINE#         261
  -------         ENDPROC       _V_GET1302
  -------         PROC          _DECTOBCD
  D:0007H         SYMBOL        dec
  -------         DO            
  D:0006H         SYMBOL        bcd
  -------         ENDDO         
  C:0327H         LINE#         269
  C:0327H         LINE#         270
  C:0327H         LINE#         272
  C:0329H         LINE#         273
  C:032FH         LINE#         274
  C:032FH         LINE#         275
  C:0333H         LINE#         276
  C:0334H         LINE#         277
  C:0336H         LINE#         278
  C:033BH         LINE#         279
BL51 BANKED LINKER/LOCATER V5.12                                                      03/11/2012  13:10:31  PAGE 8


  C:033EH         LINE#         280
  C:0340H         LINE#         281
  -------         ENDPROC       _DECTOBCD
  -------         PROC          L?0068
  -------         ENDPROC       L?0068
  -------         PROC          _BCDTODEC
  D:0007H         SYMBOL        bcd
  -------         DO            
  D:0006H         SYMBOL        data1
  -------         ENDDO         
  C:035CH         LINE#         289
  C:035CH         LINE#         290
  C:035CH         LINE#         292
  C:0360H         LINE#         293
  C:0363H         LINE#         294
  C:0368H         LINE#         295
  C:036FH         LINE#         296
  C:0370H         LINE#         297
  -------         ENDPROC       _BCDTODEC
  -------         PROC          WRITE_DS1302INIT
  C:01BBH         LINE#         305
  C:01BBH         LINE#         306
  C:01BBH         LINE#         307
  C:01BEH         LINE#         308
  C:01C2H         LINE#         309
  C:01C5H         LINE#         310
  C:01C9H         LINE#         311
  C:01CCH         LINE#         312
  C:01D0H         LINE#         313
  C:01D3H         LINE#         314
  C:01D5H         LINE#         315
  C:01D8H         LINE#         316
  C:01DAH         LINE#         317
  C:01DDH         LINE#         318
  C:01E1H         LINE#         319
  C:01E4H         LINE#         320
  -------         ENDPROC       WRITE_DS1302INIT
  -------         PROC          RUN_DS1302
  -------         DO            
  D:0008H         SYMBOL        sec
  D:0009H         SYMBOL        min
  D:000AH         SYMBOL        hour
  D:000BH         SYMBOL        day
  D:0001H         SYMBOL        month
  D:0002H         SYMBOL        year
  D:0003H         SYMBOL        flag
  -------         ENDDO         
  C:0003H         LINE#         329
  C:0003H         LINE#         330
  C:0003H         LINE#         331
  C:0005H         LINE#         332
  C:0005H         LINE#         333
  C:0005H         LINE#         334
  C:000CH         LINE#         335
  C:0013H         LINE#         336
  C:0018H         LINE#         337
  C:001FH         LINE#         338
BL51 BANKED LINKER/LOCATER V5.12                                                      03/11/2012  13:10:31  PAGE 9


  C:0024H         LINE#         339
  C:002EH         LINE#         340
  C:0033H         LINE#         341
  C:003DH         LINE#         342
  C:0042H         LINE#         343
  C:004CH         LINE#         344
  C:0051H         LINE#         345
  C:005BH         LINE#         346
  C:005EH         LINE#         347
  C:005EH         LINE#         348
  C:0060H         LINE#         349
  C:0060H         LINE#         350
  C:0063H         LINE#         351
  C:0063H         LINE#         352
  C:0065H         LINE#         353
  C:0065H         LINE#         354
  C:006DH         LINE#         355
  C:006DH         LINE#         356
  C:007FH         LINE#         357
  C:0082H         LINE#         358
  C:0088H         LINE#         359
  C:008AH         LINE#         360
  C:008AH         LINE#         361
  C:008AH         LINE#         362
  C:008AH         LINE#         363
  C:008AH         LINE#         364
  C:008DH         LINE#         365
  C:009CH         LINE#         366
  C:009FH         LINE#         367
  C:00A4H         LINE#         368
  C:00AFH         LINE#         369
  C:00B2H         LINE#         370
  C:00B7H         LINE#         371
  C:00BAH         LINE#         372
  C:00BDH         LINE#         373
  C:00C0H         LINE#         374
  C:00CFH         LINE#         375
  C:00D2H         LINE#         376
  C:00D7H         LINE#         377
  C:00E2H         LINE#         378
  C:00E5H         LINE#         379
  C:00EAH         LINE#         380
  C:00EAH         LINE#         381
  C:00F2H         LINE#         382
  C:00F2H         LINE#         383
  C:0103H         LINE#         384
  C:0106H         LINE#         385
  C:010CH         LINE#         386
  C:010DH         LINE#         387
  C:010DH         LINE#         388
  C:010DH         LINE#         389
  C:010DH         LINE#         390
  C:010DH         LINE#         391
  C:0110H         LINE#         392
  C:011EH         LINE#         393
  C:0121H         LINE#         394
  C:0126H         LINE#         395
BL51 BANKED LINKER/LOCATER V5.12                                                      03/11/2012  13:10:31  PAGE 10


  C:0130H         LINE#         396
  C:0133H         LINE#         397
  C:0138H         LINE#         398
  C:013BH         LINE#         399
  C:013EH         LINE#         400
  C:0141H         LINE#         401
  C:0150H         LINE#         402
  C:0153H         LINE#         403
  C:0158H         LINE#         404
  C:0163H         LINE#         405
  C:0166H         LINE#         406
  C:016BH         LINE#         407
  C:016BH         LINE#         408
  -------         ENDPROC       RUN_DS1302
  -------         PROC          MAIN
  C:03A8H         LINE#         417
  C:03A8H         LINE#         418
  C:03A8H         LINE#         419
  C:03ABH         LINE#         420
  -------         ENDPROC       MAIN
  -------         ENDMOD        时钟DS1302LCD

  -------         MODULE        ?C?CLDPTR
  C:016EH         PUBLIC        ?C?CLDPTR
  -------         ENDMOD        ?C?CLDPTR

  -------         MODULE        ?C?CSTPTR
  C:0187H         PUBLIC        ?C?CSTPTR
  -------         ENDMOD        ?C?CSTPTR

  -------         MODULE        ?C?CSTOPTR
  C:0199H         PUBLIC        ?C?CSTOPTR
  -------         ENDMOD        ?C?CSTOPTR

*** WARNING L16: UNCALLED SEGMENT, IGNORED FOR OVERLAY PROCESS
    SEGMENT: ?PR?DELAY?时钟DS1302LCD

*** WARNING L16: UNCALLED SEGMENT, IGNORED FOR OVERLAY PROCESS
    SEGMENT: ?PR?_V_BURSTW1302T?时钟DS1302LCD

*** WARNING L16: UNCALLED SEGMENT, IGNORED FOR OVERLAY PROCESS
    SEGMENT: ?PR?_V_BURSTR1302T?时钟DS1302LCD

*** WARNING L16: UNCALLED SEGMENT, IGNORED FOR OVERLAY PROCESS
    SEGMENT: ?PR?_V_BURSTW1302R?时钟DS1302LCD

*** WARNING L16: UNCALLED SEGMENT, IGNORED FOR OVERLAY PROCESS
    SEGMENT: ?PR?_V_BURSTR1302R?时钟DS1302LCD

*** WARNING L16: UNCALLED SEGMENT, IGNORED FOR OVERLAY PROCESS
    SEGMENT: ?PR?_V_SET1302?时钟DS1302LCD

*** WARNING L16: UNCALLED SEGMENT, IGNORED FOR OVERLAY PROCESS
    SEGMENT: ?PR?_V_GET1302?时钟DS1302LCD

*** WARNING L16: UNCALLED SEGMENT, IGNORED FOR OVERLAY PROCESS
    SEGMENT: ?PR?_DECTOBCD?时钟DS1302LCD
BL51 BANKED LINKER/LOCATER V5.12                                                      03/11/2012  13:10:31  PAGE 11



Program Size: data=17.0 xdata=0 code=942
LINK/LOCATE RUN COMPLETE.  8 WARNING(S),  0 ERROR(S)
