BL51 BANKED LINKER/LOCATER V5.12                                                        03/11/2012  13:36:44  PAGE 1


BL51 BANKED LINKER/LOCATER V5.12, INVOKED BY:
D:\PROGRAM FILES\KEIL\C51\BIN\BL51.EXE STARTUP.obj, DA-AD.obj, I2C.obj TO DA实验 RAMSIZE (256)


MEMORY MODEL: SMALL


INPUT MODULES INCLUDED:
  STARTUP.obj (?C_STARTUP)
  DA-AD.obj (DA_AD)
  I2C.obj (I2C)
  D:\PROGRAM FILES\KEIL\C51\LIB\C51S.LIB (?C_INIT)


LINK MAP OF MODULE:  DA实验 (?C_STARTUP)


            TYPE    BASE      LENGTH    RELOCATION   SEGMENT NAME
            -----------------------------------------------------

            * * * * * * *   D A T A   M E M O R Y   * * * * * * *
            REG     0000H     0008H     ABSOLUTE     "REG BANK 0"
            DATA    0008H     0003H     UNIT         _DATA_GROUP_
                    000BH     0015H                  *** GAP ***
            BIT     0020H.0   0000H.1   UNIT         ?BI?I2C
            BIT     0020H.1   0000H.1   UNIT         _BIT_GROUP_
                    0020H.2   0000H.6                *** GAP ***
            DATA    0021H     0056H     UNIT         ?DT?DA_AD
            IDATA   0077H     0001H     UNIT         ?STACK

            * * * * * * *  X D A T A   M E M O R Y  * * * * * * *
            XDATA   0000H     0020H     UNIT         ?XD?DA_AD

            * * * * * * *   C O D E   M E M O R Y   * * * * * * *
            CODE    0000H     0003H     ABSOLUTE     
            CODE    0003H     00A6H     UNIT         ?PR?MAIN?DA_AD
            CODE    00A9H     008CH     UNIT         ?C_C51STARTUP
            CODE    0135H     003CH     UNIT         ?PR?_SENDBYTE?I2C
            CODE    0171H     002CH     UNIT         ?PR?_DACCONVERSION?DA_AD
            CODE    019DH     0024H     UNIT         ?PR?RCVBYTE?I2C
            CODE    01C1H     0022H     UNIT         ?PR?_IRCVBYTE?DA_AD
            CODE    01E3H     0020H     UNIT         ?PR?_ISENDBYTE?DA_AD
            CODE    0203H     0018H     UNIT         ?C_INITSEG
            CODE    021BH     0018H     UNIT         ?PR?ACK_I2C?I2C
            CODE    0233H     0016H     UNIT         ?PR?START_I2C?I2C
            CODE    0249H     0014H     UNIT         ?PR?_DELAY_1MS?DA_AD
            CODE    025DH     0011H     UNIT         ?PR?STOP_I2C?I2C



OVERLAY MAP OF MODULE:   DA实验 (?C_STARTUP)


SEGMENT                             BIT_GROUP          DATA_GROUP 
  +--> CALLED SEGMENT            START    LENGTH     START    LENGTH
--------------------------------------------------------------------
?C_C51STARTUP                    -----    -----      -----    -----
  +--> ?PR?MAIN?DA_AD
BL51 BANKED LINKER/LOCATER V5.12                                                      03/11/2012  13:36:44  PAGE 2


  +--> ?C_INITSEG

?PR?MAIN?DA_AD                   -----    -----      -----    -----
  +--> ?PR?_ISENDBYTE?DA_AD
  +--> ?PR?_IRCVBYTE?DA_AD
  +--> ?PR?_DACCONVERSION?DA_AD
  +--> ?PR?_DELAY_1MS?DA_AD

?PR?_ISENDBYTE?DA_AD             -----    -----      0008H    0002H
  +--> ?PR?START_I2C?I2C
  +--> ?PR?_SENDBYTE?I2C
  +--> ?PR?STOP_I2C?I2C

?PR?_IRCVBYTE?DA_AD              -----    -----      0008H    0002H
  +--> ?PR?START_I2C?I2C
  +--> ?PR?_SENDBYTE?I2C
  +--> ?PR?RCVBYTE?I2C
  +--> ?PR?ACK_I2C?I2C
  +--> ?PR?STOP_I2C?I2C

?PR?ACK_I2C?I2C                  0020H.1  0000H.1    -----    -----

?PR?_DACCONVERSION?DA_AD         -----    -----      0008H    0003H
  +--> ?PR?START_I2C?I2C
  +--> ?PR?_SENDBYTE?I2C
  +--> ?PR?STOP_I2C?I2C



SYMBOL TABLE OF MODULE:  DA实验 (?C_STARTUP)

  VALUE           TYPE          NAME
  ----------------------------------

  -------         MODULE        ?C_STARTUP
  C:00A9H         SEGMENT       ?C_C51STARTUP
  I:0077H         SEGMENT       ?STACK
  C:0000H         PUBLIC        ?C_STARTUP
  D:00E0H         SYMBOL        ACC
  D:00F0H         SYMBOL        B
  D:0083H         SYMBOL        DPH
  D:0082H         SYMBOL        DPL
  N:0000H         SYMBOL        IBPSTACK
  N:0100H         SYMBOL        IBPSTACKTOP
  N:0080H         SYMBOL        IDATALEN
  C:00ACH         SYMBOL        IDATALOOP
  N:0000H         SYMBOL        PBPSTACK
  N:0000H         SYMBOL        PBPSTACKTOP
  N:0000H         SYMBOL        PDATALEN
  N:0000H         SYMBOL        PDATASTART
  N:0000H         SYMBOL        PPAGE
  N:0000H         SYMBOL        PPAGEENABLE
  D:00A0H         SYMBOL        PPAGE_SFR
  D:0081H         SYMBOL        SP
  C:00A9H         SYMBOL        STARTUP1
  N:0000H         SYMBOL        XBPSTACK
  N:0000H         SYMBOL        XBPSTACKTOP
BL51 BANKED LINKER/LOCATER V5.12                                                      03/11/2012  13:36:44  PAGE 3


  N:0000H         SYMBOL        XDATALEN
  N:0000H         SYMBOL        XDATASTART
  C:0000H         LINE#         92
  C:00A9H         LINE#         99
  C:00ABH         LINE#         100
  C:00ACH         LINE#         101
  C:00ADH         LINE#         102
  C:00AFH         LINE#         151
  C:00B2H         LINE#         155
  -------         ENDMOD        ?C_STARTUP

  -------         MODULE        DA_AD
  C:0000H         SYMBOL        _ICE_DUMMY_
  D:0090H         PUBLIC        P1
  D:00B0H         PUBLIC        P3
  D:0021H         PUBLIC        Disp_Tab
  D:00A8H         PUBLIC        IE
  D:00B8H         PUBLIC        IP
  C:0003H         PUBLIC        main
  D:0098H         PUBLIC        SCON
  D:0088H         PUBLIC        TCON
  D:0036H         PUBLIC        D
  C:0249H         PUBLIC        _Delay_1ms
  C:01E3H         PUBLIC        _ISendByte
  X:0000H         PUBLIC        LedOut
  D:0076H         PUBLIC        AD_CHANNEL
  D:00C8H         PUBLIC        T2CON
  C:01C1H         PUBLIC        _IRcvByte
  C:0171H         PUBLIC        _DACconversion
  D:00D0H         PUBLIC        PSW
  -------         PROC          _DACCONVERSION
  D:0008H         SYMBOL        sla
  D:0009H         SYMBOL        c
  D:000AH         SYMBOL        Val
  C:0171H         LINE#         25
  C:0177H         LINE#         26
  C:0177H         LINE#         27
  C:017AH         LINE#         28
  C:017FH         LINE#         29
  C:0184H         LINE#         30
  C:0189H         LINE#         31
  C:018EH         LINE#         32
  C:0193H         LINE#         33
  C:0198H         LINE#         34
  C:019BH         LINE#         35
  C:019CH         LINE#         36
  -------         ENDPROC       _DACCONVERSION
  -------         PROC          _ISENDBYTE
  D:0008H         SYMBOL        sla
  D:0009H         SYMBOL        c
  C:01E3H         LINE#         41
  C:01E7H         LINE#         42
  C:01E7H         LINE#         43
  C:01EAH         LINE#         44
  C:01EFH         LINE#         45
  C:01F4H         LINE#         46
  C:01F9H         LINE#         47
BL51 BANKED LINKER/LOCATER V5.12                                                      03/11/2012  13:36:44  PAGE 4


  C:01FEH         LINE#         48
  C:0201H         LINE#         49
  C:0202H         LINE#         50
  -------         ENDPROC       _ISENDBYTE
  -------         PROC          _IRCVBYTE
  D:0008H         SYMBOL        sla
  -------         DO            
  D:0009H         SYMBOL        c
  -------         ENDDO         
  C:01C1H         LINE#         55
  C:01C3H         LINE#         56
  C:01C3H         LINE#         58
  C:01C6H         LINE#         59
  C:01CDH         LINE#         60
  C:01D3H         LINE#         61
  C:01D8H         LINE#         63
  C:01DDH         LINE#         64
  C:01E0H         LINE#         65
  C:01E2H         LINE#         66
  -------         ENDPROC       _IRCVBYTE
  -------         PROC          _DELAY_1MS
  D:0007H         SYMBOL        i
  -------         DO            
  D:0005H         SYMBOL        x
  D:0006H         SYMBOL        j
  -------         ENDDO         
  C:0249H         LINE#         73
  C:0249H         LINE#         74
  C:0249H         LINE#         76
  C:0250H         LINE#         77
  C:025CH         LINE#         78
  -------         ENDPROC       _DELAY_1MS
  -------         PROC          MAIN
  C:0003H         LINE#         80
  C:0003H         LINE#         81
  C:0003H         LINE#         83
  C:0003H         LINE#         84
  C:0003H         LINE#         85
  C:0015H         LINE#         86
  C:0015H         LINE#         87
  C:001CH         LINE#         88
  C:002BH         LINE#         89
  C:002DH         LINE#         91
  C:0034H         LINE#         92
  C:0043H         LINE#         93
  C:0045H         LINE#         95
  C:004CH         LINE#         96
  C:005BH         LINE#         97
  C:005DH         LINE#         99
  C:0064H         LINE#         100
  C:0073H         LINE#         101
  C:0075H         LINE#         103
  C:008AH         LINE#         104
  C:008AH         LINE#         105
  C:008AH         LINE#         107
  C:0096H         LINE#         110
  C:00A1H         LINE#         111
BL51 BANKED LINKER/LOCATER V5.12                                                      03/11/2012  13:36:44  PAGE 5


  C:00A6H         LINE#         112
  -------         ENDPROC       MAIN
  -------         ENDMOD        DA_AD

  -------         MODULE        I2C
  C:0000H         SYMBOL        _ICE_DUMMY_
  D:0090H         PUBLIC        P1
  C:0135H         PUBLIC        _SendByte
  D:00B0H         PUBLIC        P3
  D:00A8H         PUBLIC        IE
  D:00B8H         PUBLIC        IP
  B:0020H.0       PUBLIC        ack
  D:0098H         PUBLIC        SCON
  D:0088H         PUBLIC        TCON
  C:019DH         PUBLIC        RcvByte
  C:021BH         PUBLIC        Ack_I2c
  C:0233H         PUBLIC        Start_I2c
  B:00B0H.6       PUBLIC        SDA
  B:0090H.5       PUBLIC        SCL
  C:025DH         PUBLIC        Stop_I2c
  D:00C8H         PUBLIC        T2CON
  D:00D0H         PUBLIC        PSW
  -------         PROC          START_I2C
  C:0233H         LINE#         21
  C:0233H         LINE#         22
  C:0233H         LINE#         23
  C:0235H         LINE#         24
  C:0236H         LINE#         25
  C:0238H         LINE#         26
  C:0239H         LINE#         27
  C:023AH         LINE#         28
  C:023BH         LINE#         29
  C:023CH         LINE#         30
  C:023DH         LINE#         31
  C:023FH         LINE#         32
  C:0240H         LINE#         33
  C:0241H         LINE#         34
  C:0242H         LINE#         35
  C:0243H         LINE#         36
  C:0244H         LINE#         37
  C:0246H         LINE#         38
  C:0247H         LINE#         39
  C:0248H         LINE#         40
  -------         ENDPROC       START_I2C
  -------         PROC          STOP_I2C
  C:025DH         LINE#         47
  C:025DH         LINE#         48
  C:025DH         LINE#         49
  C:025FH         LINE#         50
  C:0260H         LINE#         51
  C:0262H         LINE#         52
  C:0263H         LINE#         53
  C:0264H         LINE#         54
  C:0265H         LINE#         55
  C:0266H         LINE#         56
  C:0267H         LINE#         57
  C:0269H         LINE#         58
BL51 BANKED LINKER/LOCATER V5.12                                                      03/11/2012  13:36:44  PAGE 6


  C:026AH         LINE#         59
  C:026BH         LINE#         60
  C:026CH         LINE#         61
  C:026DH         LINE#         62
  -------         ENDPROC       STOP_I2C
  -------         PROC          _SENDBYTE
  D:0007H         SYMBOL        c
  -------         DO            
  D:0006H         SYMBOL        BitCnt
  -------         ENDDO         
  C:0135H         LINE#         71
  C:0135H         LINE#         72
  C:0135H         LINE#         75
  C:0137H         LINE#         76
  C:0137H         LINE#         77
  C:0148H         LINE#         78
  C:014AH         LINE#         79
  C:014BH         LINE#         80
  C:014DH         LINE#         81
  C:014EH         LINE#         82
  C:014FH         LINE#         83
  C:0150H         LINE#         84
  C:0151H         LINE#         85
  C:0152H         LINE#         86
  C:0154H         LINE#         87
  C:0158H         LINE#         89
  C:0159H         LINE#         90
  C:015AH         LINE#         91
  C:015CH         LINE#         92
  C:015DH         LINE#         93
  C:015EH         LINE#         94
  C:0160H         LINE#         95
  C:0161H         LINE#         96
  C:0162H         LINE#         97
  C:0163H         LINE#         98
  C:016AH         LINE#         99
  C:016CH         LINE#         100
  C:016EH         LINE#         101
  C:016FH         LINE#         102
  C:0170H         LINE#         103
  -------         ENDPROC       _SENDBYTE
  -------         PROC          RCVBYTE
  -------         DO            
  D:0007H         SYMBOL        retc
  D:0006H         SYMBOL        BitCnt
  -------         ENDDO         
  C:019DH         LINE#         111
  C:019DH         LINE#         112
  C:019DH         LINE#         116
  C:019FH         LINE#         117
  C:01A1H         LINE#         118
  C:01A2H         LINE#         119
  C:01A2H         LINE#         120
  C:01A3H         LINE#         121
  C:01A5H         LINE#         122
  C:01A6H         LINE#         123
  C:01A7H         LINE#         124
BL51 BANKED LINKER/LOCATER V5.12                                                      03/11/2012  13:36:44  PAGE 7


  C:01A8H         LINE#         125
  C:01A9H         LINE#         126
  C:01AAH         LINE#         127
  C:01ACH         LINE#         128
  C:01ADH         LINE#         129
  C:01AEH         LINE#         130
  C:01B2H         LINE#         131
  C:01B6H         LINE#         132
  C:01B7H         LINE#         133
  C:01B8H         LINE#         134
  C:01BCH         LINE#         135
  C:01BEH         LINE#         136
  C:01BFH         LINE#         137
  C:01C0H         LINE#         138
  C:01C0H         LINE#         139
  -------         ENDPROC       RCVBYTE
  -------         PROC          ACK_I2C
  B:0020H.1       SYMBOL        a
  C:021BH         LINE#         146
  C:021BH         LINE#         147
  C:021BH         LINE#         149
  C:0222H         LINE#         150
  C:0224H         LINE#         151
  C:0225H         LINE#         152
  C:0226H         LINE#         153
  C:0227H         LINE#         154
  C:0229H         LINE#         155
  C:022AH         LINE#         156
  C:022BH         LINE#         157
  C:022CH         LINE#         158
  C:022DH         LINE#         159
  C:022EH         LINE#         160
  C:0230H         LINE#         161
  C:0231H         LINE#         162
  C:0232H         LINE#         163
  -------         ENDPROC       ACK_I2C
  -------         ENDMOD        I2C

Program Size: data=98.2 xdata=32 code=622
LINK/LOCATE RUN COMPLETE.  0 WARNING(S),  0 ERROR(S)
