BL51 BANKED LINKER/LOCATER V5.12                                                        03/10/2012  13:57:25  PAGE 1


BL51 BANKED LINKER/LOCATER V5.12, INVOKED BY:
D:\PROGRAM FILES\KEIL\C51\BIN\BL51.EXE STARTUP.obj, 【实验08】顺时针流水灯.obj TO 【实验08】顺时针流水灯 RAMSIZE (256)


MEMORY MODEL: SMALL


INPUT MODULES INCLUDED:
  STARTUP.obj (?C_STARTUP)
  【实验08】顺时针流水灯.obj (实验08】顺时针羅水灯)


LINK MAP OF MODULE:  【实验08】顺时针流水灯 (?C_STARTUP)


            TYPE    BASE      LENGTH    RELOCATION   SEGMENT NAME
            -----------------------------------------------------

            * * * * * * *   D A T A   M E M O R Y   * * * * * * *
            REG     0000H     0008H     ABSOLUTE     "REG BANK 0"
            DATA    0008H     0001H     UNIT         _DATA_GROUP_
            IDATA   0009H     0001H     UNIT         ?STACK

            * * * * * * *   C O D E   M E M O R Y   * * * * * * *
            CODE    0000H     0003H     ABSOLUTE     
            CODE    0003H     0020H     UNIT         ?PR?_DELAY?实验08】顺时针羅水灯
            CODE    0023H     001EH     UNIT         ?PR?MAIN?实验08】顺时针羅水灯
            CODE    0041H     000CH     UNIT         ?C_C51STARTUP



OVERLAY MAP OF MODULE:   【实验08】顺时针流水灯 (?C_STARTUP)


SEGMENT                                     DATA_GROUP 
  +--> CALLED SEGMENT                     START    LENGTH
---------------------------------------------------------
?C_C51STARTUP                             -----    -----
  +--> ?PR?MAIN?实验08】顺时针羅水灯

?PR?MAIN?实验08】顺时针羅水灯           0008H    0001H
  +--> ?PR?_DELAY?实验08】顺时针羅水灯



SYMBOL TABLE OF MODULE:  【实验08】顺时针流水灯 (?C_STARTUP)

  VALUE           TYPE          NAME
  ----------------------------------

  -------         MODULE        ?C_STARTUP
  C:0041H         SEGMENT       ?C_C51STARTUP
  I:0009H         SEGMENT       ?STACK
  C:0000H         PUBLIC        ?C_STARTUP
  D:00E0H         SYMBOL        ACC
  D:00F0H         SYMBOL        B
  D:0083H         SYMBOL        DPH
  D:0082H         SYMBOL        DPL
BL51 BANKED LINKER/LOCATER V5.12                                                      03/10/2012  13:57:25  PAGE 2


  N:0000H         SYMBOL        IBPSTACK
  N:0100H         SYMBOL        IBPSTACKTOP
  N:0080H         SYMBOL        IDATALEN
  C:0044H         SYMBOL        IDATALOOP
  N:0000H         SYMBOL        PBPSTACK
  N:0000H         SYMBOL        PBPSTACKTOP
  N:0000H         SYMBOL        PDATALEN
  N:0000H         SYMBOL        PDATASTART
  N:0000H         SYMBOL        PPAGE
  N:0000H         SYMBOL        PPAGEENABLE
  D:00A0H         SYMBOL        PPAGE_SFR
  D:0081H         SYMBOL        SP
  C:0041H         SYMBOL        STARTUP1
  N:0000H         SYMBOL        XBPSTACK
  N:0000H         SYMBOL        XBPSTACKTOP
  N:0000H         SYMBOL        XDATALEN
  N:0000H         SYMBOL        XDATASTART
  C:0000H         LINE#         92
  C:0041H         LINE#         99
  C:0043H         LINE#         100
  C:0044H         LINE#         101
  C:0045H         LINE#         102
  C:0047H         LINE#         151
  C:004AH         LINE#         155
  -------         ENDMOD        ?C_STARTUP

  -------         MODULE        实验08】顺时针羅水灯
  C:0000H         SYMBOL        _ICE_DUMMY_
  D:0080H         PUBLIC        P0
  D:0090H         PUBLIC        P1
  D:00B0H         PUBLIC        P3
  C:0023H         PUBLIC        Main
  D:00A8H         PUBLIC        IE
  D:00B8H         PUBLIC        IP
  D:0098H         PUBLIC        SCON
  D:0088H         PUBLIC        TCON
  C:0003H         PUBLIC        _Delay
  D:00C8H         PUBLIC        T2CON
  D:00D0H         PUBLIC        PSW
  -------         PROC          _DELAY
  D:0006H         SYMBOL        del
  -------         DO            
  D:0004H         SYMBOL        i
  D:0002H         SYMBOL        j
  -------         ENDDO         
  C:0003H         LINE#         17
  C:0003H         LINE#         18
  C:0003H         LINE#         20
  C:000DH         LINE#         21
  C:0022H         LINE#         23
  -------         ENDPROC       _DELAY
  -------         PROC          MAIN
  -------         DO            
  D:0001H         SYMBOL        i
  D:0008H         SYMBOL        temp
  -------         ENDDO         
  C:0023H         LINE#         31
BL51 BANKED LINKER/LOCATER V5.12                                                      03/10/2012  13:57:25  PAGE 3


  C:0023H         LINE#         32
  C:0023H         LINE#         34
  C:0023H         LINE#         35
  C:0023H         LINE#         36
  C:0026H         LINE#         37
  C:0028H         LINE#         38
  C:0028H         LINE#         39
  C:002BH         LINE#         40
  C:0032H         LINE#         41
  C:0038H         LINE#         42
  C:003BH         LINE#         43
  -------         ENDPROC       MAIN
  -------         ENDMOD        实验08】顺时针羅水灯

Program Size: data=10.0 xdata=0 code=77
LINK/LOCATE RUN COMPLETE.  0 WARNING(S),  0 ERROR(S)
