:1000F10008100010307E7E30100008187FBFDFEF3F
:04010100F7FBFDFE0D
:10010600E4FEEEC39F500CE4FD0DEDD3949440F94C
:030116000E80EF69
:0101190022C3
:10008F00E4F520FC74102CF8E6FF74082CF8A60792
:10009F000CBC08F0E4FBE4FCE4F58074182CF8E6E3
:1000AF00F5A074102CF8E6F5807F021201060CBC47
:1000BF0008E60BBB08E0E4FCECC3940850D67408C8
:1000CF002CF8E6FF780108800123D8FDFF74082C77
:1000DF00F8A60774082CF8E6FF74102CF8A6070C86
:0200EF0080D6B9
:03000000020003F8
:0C000300787FE4F6D8FD75812002004AE9
:10000F0002008FE493A3F8E493A34003F68001F278
:10001F0008DFF48029E493A3F85407240CC8C333F2
:10002F00C4540F4420C8834004F456800146F6DFC1
:10003F00E4800B01020408102040809000F1E47E60
:10004F00019360BCA3FF543F30E509541FFEE493B6
:10005F00A360010ECF54C025E060A840B8E493A37D
:10006F00FAE493A3F8E493A3C8C582C8CAC583CAA8
:10007F00F0A3C8C582C8CAC583CADFE9DEE780BE60
:0101050000F9
:00000001FF
