BL51 BANKED LINKER/LOCATER V5.12                                                        03/08/2012  14:47:02  PAGE 1


BL51 BANKED LINKER/LOCATER V5.12, INVOKED BY:
D:\PROGRAM FILES\KEIL\C51\BIN\BL51.EXE 步进电机.obj TO 步进电机 RAMSIZE (256)


MEMORY MODEL: SMALL


INPUT MODULES INCLUDED:
  步进电机.obj (步絖电籣)
  D:\PROGRAM FILES\KEIL\C51\LIB\C51S.LIB (?C_STARTUP)
  D:\PROGRAM FILES\KEIL\C51\LIB\C51S.LIB (?C_INIT)


LINK MAP OF MODULE:  步进电机 (步絖电籣)


            TYPE    BASE      LENGTH    RELOCATION   SEGMENT NAME
            -----------------------------------------------------

            * * * * * * *   D A T A   M E M O R Y   * * * * * * *
            REG     0000H     0008H     ABSOLUTE     "REG BANK 0"
            DATA    0008H     0001H     UNIT         ?DT?步絖电籣
                    0009H     0017H                  *** GAP ***
            BIT     0020H.0   0000H.1   UNIT         ?BI?步絖电籣
                    0020H.1   0000H.7                *** GAP ***
            IDATA   0021H     0001H     UNIT         ?STACK

            * * * * * * *   C O D E   M E M O R Y   * * * * * * *
            CODE    0000H     0003H     ABSOLUTE     
            CODE    0003H     008CH     UNIT         ?C_C51STARTUP
            CODE    008FH     003FH     UNIT         ?PR?KEY?步絖电籣
            CODE    00CEH     0025H     UNIT         ?PR?MAIN?步絖电籣
            CODE    00F3H     001AH     UNIT         ?PR?_DELAY?步絖电籣
            CODE    010DH     0010H     UNIT         ?CO?步絖电籣
            CODE    011DH     0006H     UNIT         ?C_INITSEG



OVERLAY MAP OF MODULE:   步进电机 (步絖电籣)


SEGMENT
  +--> CALLED SEGMENT
---------------------
?C_C51STARTUP
  +--> ?PR?MAIN?步絖电籣
  +--> ?C_INITSEG

?PR?MAIN?步絖电籣
  +--> ?PR?KEY?步絖电籣
  +--> ?CO?步絖电籣
  +--> ?PR?_DELAY?步絖电籣

?PR?KEY?步絖电籣
  +--> ?PR?_DELAY?步絖电籣



BL51 BANKED LINKER/LOCATER V5.12                                                      03/08/2012  14:47:02  PAGE 2


SYMBOL TABLE OF MODULE:  步进电机 (步絖电籣)

  VALUE           TYPE          NAME
  ----------------------------------

  -------         MODULE        步絖电籣
  C:0000H         SYMBOL        _ICE_DUMMY_
  D:0090H         PUBLIC        P1
  D:00B0H         PUBLIC        P3
  B:0020H.0       PUBLIC        FB_flag
  D:00A8H         PUBLIC        IE
  D:00B8H         PUBLIC        IP
  B:00B0H.2       PUBLIC        KEY1
  B:00B0H.3       PUBLIC        KEY2
  B:00B0H.4       PUBLIC        KEY3
  D:0008H         PUBLIC        Step
  C:00CEH         PUBLIC        main
  D:0098H         PUBLIC        SCON
  D:0088H         PUBLIC        TCON
  C:00F7H         PUBLIC        _Delay
  D:00C8H         PUBLIC        T2CON
  C:008FH         PUBLIC        KEY
  C:0115H         PUBLIC        B_Rotation
  D:00D0H         PUBLIC        PSW
  C:010DH         PUBLIC        F_Rotation
  C:00F3H         SYMBOL        L?0026
  -------         PROC          L?0025
  -------         ENDPROC       L?0025
  C:00F3H         SYMBOL        L?0026
  -------         PROC          _DELAY
  D:0006H         SYMBOL        i
  -------         DO            
  D:0004H         SYMBOL        x
  D:0005H         SYMBOL        j
  -------         ENDDO         
  C:00F7H         LINE#         39
  C:00F7H         LINE#         40
  C:00F7H         LINE#         42
  C:0100H         LINE#         43
  C:010CH         LINE#         44
  -------         ENDPROC       _DELAY
  -------         PROC          KEY
  C:008FH         LINE#         46
  C:008FH         LINE#         47
  C:008FH         LINE#         48
  C:0092H         LINE#         49
  C:0092H         LINE#         50
  C:0095H         LINE#         51
  C:0098H         LINE#         52
  C:0098H         LINE#         53
  C:009AH         LINE#         54
  C:009AH         LINE#         55
  C:00A1H         LINE#         56
  C:00A1H         LINE#         57
  C:00A4H         LINE#         58
  C:00A4H         LINE#         59
  C:00A7H         LINE#         60
BL51 BANKED LINKER/LOCATER V5.12                                                      03/08/2012  14:47:02  PAGE 3


  C:00AAH         LINE#         61
  C:00AAH         LINE#         62
  C:00ACH         LINE#         63
  C:00ACH         LINE#         64
  C:00B3H         LINE#         65
  C:00B3H         LINE#         66
  C:00B6H         LINE#         67
  C:00B6H         LINE#         68
  C:00B9H         LINE#         69
  C:00BCH         LINE#         70
  C:00BCH         LINE#         71
  C:00BEH         LINE#         72
  C:00C3H         LINE#         73
  C:00C3H         LINE#         74
  C:00C6H         LINE#         75
  C:00C6H         LINE#         76
  C:00C6H         LINE#         77
  C:00CDH         LINE#         78
  C:00CDH         LINE#         79
  -------         ENDPROC       KEY
  -------         PROC          MAIN
  -------         DO            
  D:0003H         SYMBOL        i
  -------         ENDDO         
  C:00CEH         LINE#         80
  C:00CEH         LINE#         81
  C:00CEH         LINE#         84
  C:00CEH         LINE#         85
  C:00CEH         LINE#         86
  C:00D1H         LINE#         87
  C:00D3H         LINE#         88
  C:00D3H         LINE#         91
  C:00D7H         LINE#         92
  C:00D7H         LINE#         93
  C:00DAH         LINE#         94
  C:00DCH         LINE#         96
  C:00DCH         LINE#         97
  C:00E2H         LINE#         98
  C:00E2H         LINE#         99
  C:00EDH         LINE#         100
  -------         ENDPROC       MAIN
  -------         ENDMOD        步絖电籣

Program Size: data=10.1 xdata=0 code=291
LINK/LOCATE RUN COMPLETE.  0 WARNING(S),  0 ERROR(S)
