:03000000020003F8
:0C000300787FE4F6D8FD75811702004AF2
:1000CA0010083F065B4F666D7D077F6F777C395E50
:0200DA0079713A
:10008F00E4FDFCC3ED9FEC9E5015E4FBFA0BBB00A7
:0F009F00010ABA07F8BB23F50DBD00010C80E480
:0100AE00222F
:1000AF00E4F975A007E9540F2408F8E6F58020B2AB
:0B00BF00F4097F1E7E0012008F80EA13
:10000F000200AFE493A3F8E493A34003F68001F258
:10001F0008DFF48029E493A3F85407240CC8C333F2
:10002F00C4540F4420C8834004F456800146F6DFC1
:10003F00E4800B01020408102040809000CAE47E87
:10004F00019360BCA3FF543F30E509541FFEE493B6
:10005F00A360010ECF54C025E060A840B8E493A37D
:10006F00FAE493A3F8E493A3C8C582C8CAC583CAA8
:10007F00F0A3C8C582C8CAC583CADFE9DEE780BE60
:0100DC000023
:00000001FF
