:0300000002000EED
:0C000E00787FE4F6D8FD75810A020055E9
:0400B2000208000040
:0F009A00758901758CDCE4F58A75A882D28C22F9
:03000B000200A947
:0900A900758CDC758A00B29032FE
:08000300E4F50A12009A80FEE8
:10001A00020003E493A3F8E493A34003F68001F2F9
:10002A0008DFF48029E493A3F85407240CC8C333E7
:10003A00C4540F4420C8834004F456800146F6DFB6
:10004A00E4800B01020408102040809000B2E47E94
:10005A00019360BCA3FF543F30E509541FFEE493AB
:10006A00A360010ECF54C025E060A840B8E493A372
:10007A00FAE493A3F8E493A3C8C582C8CAC583CA9D
:10008A00F0A3C8C582C8CAC583CADFE9DEE780BE55
:0100B6000049
:00000001FF
